{
  "_format": "hh-sol-artifact-1",
  "contractName": "Create",
  "sourceName": "contracts/VotingContract.sol",
  "abi": [
    {
      "inputs": [],
      "stateMutability": "nonpayable",
      "type": "constructor"
    },
    {
      "anonymous": false,
      "inputs": [
        {
          "indexed": true,
          "internalType": "uint256",
          "name": "candidateId",
          "type": "uint256"
        },
        {
          "indexed": false,
          "internalType": "string",
          "name": "age",
          "type": "string"
        },
        {
          "indexed": false,
          "internalType": "string",
          "name": "name",
          "type": "string"
        },
        {
          "indexed": false,
          "internalType": "string",
          "name": "image",
          "type": "string"
        },
        {
          "indexed": false,
          "internalType": "uint256",
          "name": "voteCount",
          "type": "uint256"
        },
        {
          "indexed": false,
          "internalType": "address",
          "name": "_address",
          "type": "address"
        },
        {
          "indexed": false,
          "internalType": "string",
          "name": "ipfs",
          "type": "string"
        }
      ],
      "name": "CandidateCreate",
      "type": "event"
    },
    {
      "anonymous": false,
      "inputs": [
        {
          "indexed": true,
          "internalType": "uint256",
          "name": "voter_voterId",
          "type": "uint256"
        },
        {
          "indexed": false,
          "internalType": "string",
          "name": "voter_name",
          "type": "string"
        },
        {
          "indexed": false,
          "internalType": "string",
          "name": "voter_image",
          "type": "string"
        },
        {
          "indexed": false,
          "internalType": "address",
          "name": "voter_address",
          "type": "address"
        },
        {
          "indexed": false,
          "internalType": "uint256",
          "name": "voter_allowed",
          "type": "uint256"
        },
        {
          "indexed": false,
          "internalType": "bool",
          "name": "voter_voted",
          "type": "bool"
        },
        {
          "indexed": false,
          "internalType": "uint256",
          "name": "voter_vote",
          "type": "uint256"
        },
        {
          "indexed": false,
          "internalType": "string",
          "name": "voter_ipfs",
          "type": "string"
        }
      ],
      "name": "VoterCreated",
      "type": "event"
    },
    {
      "inputs": [],
      "name": "_candidateId",
      "outputs": [
        {
          "internalType": "uint256",
          "name": "_value",
          "type": "uint256"
        }
      ],
      "stateMutability": "view",
      "type": "function"
    },
    {
      "inputs": [],
      "name": "_voterId",
      "outputs": [
        {
          "internalType": "uint256",
          "name": "_value",
          "type": "uint256"
        }
      ],
      "stateMutability": "view",
      "type": "function"
    },
    {
      "inputs": [
        {
          "internalType": "uint256",
          "name": "",
          "type": "uint256"
        }
      ],
      "name": "candidateAddress",
      "outputs": [
        {
          "internalType": "address",
          "name": "",
          "type": "address"
        }
      ],
      "stateMutability": "view",
      "type": "function"
    },
    {
      "inputs": [
        {
          "internalType": "address",
          "name": "",
          "type": "address"
        }
      ],
      "name": "candidates",
      "outputs": [
        {
          "internalType": "uint256",
          "name": "candidateId",
          "type": "uint256"
        },
        {
          "internalType": "string",
          "name": "age",
          "type": "string"
        },
        {
          "internalType": "string",
          "name": "name",
          "type": "string"
        },
        {
          "internalType": "string",
          "name": "image",
          "type": "string"
        },
        {
          "internalType": "uint256",
          "name": "voteCount",
          "type": "uint256"
        },
        {
          "internalType": "address",
          "name": "_address",
          "type": "address"
        },
        {
          "internalType": "string",
          "name": "ipfs",
          "type": "string"
        }
      ],
      "stateMutability": "view",
      "type": "function"
    },
    {
      "inputs": [],
      "name": "getCandidate",
      "outputs": [
        {
          "internalType": "address[]",
          "name": "",
          "type": "address[]"
        }
      ],
      "stateMutability": "view",
      "type": "function"
    },
    {
      "inputs": [
        {
          "internalType": "address",
          "name": "_address",
          "type": "address"
        }
      ],
      "name": "getCandidateData",
      "outputs": [
        {
          "internalType": "string",
          "name": "",
          "type": "string"
        },
        {
          "internalType": "string",
          "name": "",
          "type": "string"
        },
        {
          "internalType": "uint256",
          "name": "",
          "type": "uint256"
        },
        {
          "internalType": "string",
          "name": "",
          "type": "string"
        },
        {
          "internalType": "uint256",
          "name": "",
          "type": "uint256"
        },
        {
          "internalType": "string",
          "name": "",
          "type": "string"
        },
        {
          "internalType": "address",
          "name": "",
          "type": "address"
        }
      ],
      "stateMutability": "view",
      "type": "function"
    },
    {
      "inputs": [],
      "name": "getCandidateLength",
      "outputs": [
        {
          "internalType": "uint256",
          "name": "",
          "type": "uint256"
        }
      ],
      "stateMutability": "view",
      "type": "function"
    },
    {
      "inputs": [],
      "name": "getVotedVoterList",
      "outputs": [
        {
          "internalType": "address[]",
          "name": "",
          "type": "address[]"
        }
      ],
      "stateMutability": "view",
      "type": "function"
    },
    {
      "inputs": [
        {
          "internalType": "address",
          "name": "_address",
          "type": "address"
        }
      ],
      "name": "getVoterData",
      "outputs": [
        {
          "internalType": "uint256",
          "name": "",
          "type": "uint256"
        },
        {
          "internalType": "string",
          "name": "",
          "type": "string"
        },
        {
          "internalType": "string",
          "name": "",
          "type": "string"
        },
        {
          "internalType": "address",
          "name": "",
          "type": "address"
        },
        {
          "internalType": "string",
          "name": "",
          "type": "string"
        },
        {
          "internalType": "uint256",
          "name": "",
          "type": "uint256"
        },
        {
          "internalType": "bool",
          "name": "",
          "type": "bool"
        }
      ],
      "stateMutability": "view",
      "type": "function"
    },
    {
      "inputs": [],
      "name": "getVoterLength",
      "outputs": [
        {
          "internalType": "uint256",
          "name": "",
          "type": "uint256"
        }
      ],
      "stateMutability": "view",
      "type": "function"
    },
    {
      "inputs": [],
      "name": "getVoterList",
      "outputs": [
        {
          "internalType": "address[]",
          "name": "",
          "type": "address[]"
        }
      ],
      "stateMutability": "view",
      "type": "function"
    },
    {
      "inputs": [
        {
          "internalType": "address",
          "name": "_address",
          "type": "address"
        },
        {
          "internalType": "string",
          "name": "_age",
          "type": "string"
        },
        {
          "internalType": "string",
          "name": "_name",
          "type": "string"
        },
        {
          "internalType": "string",
          "name": "_image",
          "type": "string"
        },
        {
          "internalType": "string",
          "name": "_ipfs",
          "type": "string"
        }
      ],
      "name": "setCandidate",
      "outputs": [],
      "stateMutability": "nonpayable",
      "type": "function"
    },
    {
      "inputs": [
        {
          "internalType": "address",
          "name": "_candidateAddress",
          "type": "address"
        },
        {
          "internalType": "uint256",
          "name": "_candidateVoterId",
          "type": "uint256"
        }
      ],
      "name": "vote",
      "outputs": [],
      "stateMutability": "nonpayable",
      "type": "function"
    },
    {
      "inputs": [
        {
          "internalType": "uint256",
          "name": "",
          "type": "uint256"
        }
      ],
      "name": "votedVoters",
      "outputs": [
        {
          "internalType": "address",
          "name": "",
          "type": "address"
        }
      ],
      "stateMutability": "view",
      "type": "function"
    },
    {
      "inputs": [
        {
          "internalType": "address",
          "name": "_address",
          "type": "address"
        },
        {
          "internalType": "string",
          "name": "_name",
          "type": "string"
        },
        {
          "internalType": "string",
          "name": "_image",
          "type": "string"
        },
        {
          "internalType": "string",
          "name": "_ipfs",
          "type": "string"
        }
      ],
      "name": "voterRight",
      "outputs": [],
      "stateMutability": "nonpayable",
      "type": "function"
    },
    {
      "inputs": [
        {
          "internalType": "address",
          "name": "",
          "type": "address"
        }
      ],
      "name": "voters",
      "outputs": [
        {
          "internalType": "uint256",
          "name": "voter_voterId",
          "type": "uint256"
        },
        {
          "internalType": "string",
          "name": "voter_name",
          "type": "string"
        },
        {
          "internalType": "string",
          "name": "voter_image",
          "type": "string"
        },
        {
          "internalType": "address",
          "name": "voter_address",
          "type": "address"
        },
        {
          "internalType": "uint256",
          "name": "voter_allowed",
          "type": "uint256"
        },
        {
          "internalType": "bool",
          "name": "voter_voted",
          "type": "bool"
        },
        {
          "internalType": "uint256",
          "name": "voter_vote",
          "type": "uint256"
        },
        {
          "internalType": "string",
          "name": "voter_ipfs",
          "type": "string"
        }
      ],
      "stateMutability": "view",
      "type": "function"
    },
    {
      "inputs": [
        {
          "internalType": "uint256",
          "name": "",
          "type": "uint256"
        }
      ],
      "name": "votersAddress",
      "outputs": [
        {
          "internalType": "address",
          "name": "",
          "type": "address"
        }
      ],
      "stateMutability": "view",
      "type": "function"
    },
    {
      "inputs": [],
      "name": "votingOrganizer",
      "outputs": [
        {
          "internalType": "address",
          "name": "",
          "type": "address"
        }
      ],
      "stateMutability": "view",
      "type": "function"
    }
  ],
  "bytecode": "0x608060405234801561001057600080fd5b5033600260006101000a81548173ffffffffffffffffffffffffffffffffffffffff021916908373ffffffffffffffffffffffffffffffffffffffff1602179055506128f0806100616000396000f3fe608060405234801561001057600080fd5b50600436106101165760003560e01c80638ab66a90116100a2578063a738896711610071578063a738896714610334578063b28d92ae14610352578063b9be315214610370578063c91ec7121461038e578063f7522a83146103aa57610116565b80638ab66a90146102735780638e945685146102a95780638fb4cd80146102c7578063a3ec138d146102fd57610116565b806343242daa116100e957806343242daa146101bb5780635cc48aa7146101eb5780635f74bbde1461020957806370218b85146102255780637831ffb31461024357610116565b80630361419e1461011b57806305ad45a4146101375780632a466ac7146101555780633a88251a1461018b575b600080fd5b61013560048036038101906101309190611bad565b6103c8565b005b61013f610647565b60405161014c9190611c81565b60405180910390f35b61016f600480360381019061016a9190611c9c565b610654565b6040516101829796959493929190611d57565b60405180910390f35b6101a560048036038101906101a09190611e0e565b610a9b565b6040516101b29190611e3b565b60405180910390f35b6101d560048036038101906101d09190611e0e565b610ada565b6040516101e29190611e3b565b60405180910390f35b6101f3610b19565b6040516102009190611e3b565b60405180910390f35b610223600480360381019061021e9190611e56565b610b3f565b005b61022d610d06565b60405161023a9190611f54565b60405180910390f35b61025d60048036038101906102589190611e0e565b610d94565b60405161026a9190611e3b565b60405180910390f35b61028d60048036038101906102889190611c9c565b610dd3565b6040516102a09796959493929190611f76565b60405180910390f35b6102b1611055565b6040516102be9190611f54565b60405180910390f35b6102e160048036038101906102dc9190611c9c565b6110e3565b6040516102f4979695949392919061201c565b60405180910390f35b61031760048036038101906103129190611c9c565b6114ab565b60405161032b9897969594939291906120a0565b60405180910390f35b61033c6116b8565b6040516103499190611c81565b60405180910390f35b61035a6116c4565b6040516103679190611f54565b60405180910390f35b610378611752565b6040516103859190611c81565b60405180910390f35b6103a860048036038101906103a39190612133565b61175e565b005b6103b26119c4565b6040516103bf9190611c81565b60405180910390f35b3373ffffffffffffffffffffffffffffffffffffffff16600260009054906101000a900473ffffffffffffffffffffffffffffffffffffffff1673ffffffffffffffffffffffffffffffffffffffff1614610458576040517f08c379a000000000000000000000000000000000000000000000000000000000815260040161044f90612290565b60405180910390fd5b61046260006119d1565b600061046e60006119e7565b90506000600760008773ffffffffffffffffffffffffffffffffffffffff1673ffffffffffffffffffffffffffffffffffffffff168152602001908152602001600020905060008160040154146104c457600080fd5b60018160040181905550848160010190816104df91906124bc565b50838160020190816104f191906124bc565b50858160030160006101000a81548173ffffffffffffffffffffffffffffffffffffffff021916908373ffffffffffffffffffffffffffffffffffffffff1602179055508181600001819055506103e8816006018190555060008160050160006101000a81548160ff0219169083151502179055508281600701908161057791906124bc565b506006869080600181540180825580915050600190039060005260206000200160009091909190916101000a81548173ffffffffffffffffffffffffffffffffffffffff021916908373ffffffffffffffffffffffffffffffffffffffff16021790555080600001547ff5f39971dd62d9929e3a9feaa6bb77fe7c7da0001babff8a65a7e51ad0201c1986868985600401548660050160009054906101000a900460ff168760060154886007016040516106379796959493929190612612565b60405180910390a2505050505050565b6000600680549050905090565b60608060006060600060606000600460008973ffffffffffffffffffffffffffffffffffffffff1673ffffffffffffffffffffffffffffffffffffffff168152602001908152602001600020600101600460008a73ffffffffffffffffffffffffffffffffffffffff1673ffffffffffffffffffffffffffffffffffffffff168152602001908152602001600020600201600460008b73ffffffffffffffffffffffffffffffffffffffff1673ffffffffffffffffffffffffffffffffffffffff16815260200190815260200160002060000154600460008c73ffffffffffffffffffffffffffffffffffffffff1673ffffffffffffffffffffffffffffffffffffffff168152602001908152602001600020600301600460008d73ffffffffffffffffffffffffffffffffffffffff1673ffffffffffffffffffffffffffffffffffffffff16815260200190815260200160002060040154600460008e73ffffffffffffffffffffffffffffffffffffffff1673ffffffffffffffffffffffffffffffffffffffff168152602001908152602001600020600601600460008f73ffffffffffffffffffffffffffffffffffffffff1673ffffffffffffffffffffffffffffffffffffffff16815260200190815260200160002060050160009054906101000a900473ffffffffffffffffffffffffffffffffffffffff1686805461085e906122df565b80601f016020809104026020016040519081016040528092919081815260200182805461088a906122df565b80156108d75780601f106108ac576101008083540402835291602001916108d7565b820191906000526020600020905b8154815290600101906020018083116108ba57829003601f168201915b505050505096508580546108ea906122df565b80601f0160208091040260200160405190810160405280929190818152602001828054610916906122df565b80156109635780601f1061093857610100808354040283529160200191610963565b820191906000526020600020905b81548152906001019060200180831161094657829003601f168201915b50505050509550838054610976906122df565b80601f01602080910402602001604051908101604052809291908181526020018280546109a2906122df565b80156109ef5780601f106109c4576101008083540402835291602001916109ef565b820191906000526020600020905b8154815290600101906020018083116109d257829003601f168201915b50505050509350818054610a02906122df565b80601f0160208091040260200160405190810160405280929190818152602001828054610a2e906122df565b8015610a7b5780601f10610a5057610100808354040283529160200191610a7b565b820191906000526020600020905b815481529060010190602001808311610a5e57829003601f168201915b505050505091509650965096509650965096509650919395979092949650565b60038181548110610aab57600080fd5b906000526020600020016000915054906101000a900473ffffffffffffffffffffffffffffffffffffffff1681565b60068181548110610aea57600080fd5b906000526020600020016000915054906101000a900473ffffffffffffffffffffffffffffffffffffffff1681565b600260009054906101000a900473ffffffffffffffffffffffffffffffffffffffff1681565b6000600760003373ffffffffffffffffffffffffffffffffffffffff1673ffffffffffffffffffffffffffffffffffffffff16815260200190815260200160002090508060050160009054906101000a900460ff1615610bd4576040517f08c379a0000000000000000000000000000000000000000000000000000000008152600401610bcb906126e2565b60405180910390fd5b6000816004015403610c1b576040517f08c379a0000000000000000000000000000000000000000000000000000000008152600401610c129061274e565b60405180910390fd5b60018160050160006101000a81548160ff0219169083151502179055508181600601819055506005339080600181540180825580915050600190039060005260206000200160009091909190916101000a81548173ffffffffffffffffffffffffffffffffffffffff021916908373ffffffffffffffffffffffffffffffffffffffff1602179055508060040154600460008573ffffffffffffffffffffffffffffffffffffffff1673ffffffffffffffffffffffffffffffffffffffff1681526020019081526020016000206004016000828254610cfa919061279d565b92505081905550505050565b60606003805480602002602001604051908101604052809291908181526020018280548015610d8a57602002820191906000526020600020905b8160009054906101000a900473ffffffffffffffffffffffffffffffffffffffff1673ffffffffffffffffffffffffffffffffffffffff1681526020019060010190808311610d40575b5050505050905090565b60058181548110610da457600080fd5b906000526020600020016000915054906101000a900473ffffffffffffffffffffffffffffffffffffffff1681565b6004602052806000526040600020600091509050806000015490806001018054610dfc906122df565b80601f0160208091040260200160405190810160405280929190818152602001828054610e28906122df565b8015610e755780601f10610e4a57610100808354040283529160200191610e75565b820191906000526020600020905b815481529060010190602001808311610e5857829003601f168201915b505050505090806002018054610e8a906122df565b80601f0160208091040260200160405190810160405280929190818152602001828054610eb6906122df565b8015610f035780601f10610ed857610100808354040283529160200191610f03565b820191906000526020600020905b815481529060010190602001808311610ee657829003601f168201915b505050505090806003018054610f18906122df565b80601f0160208091040260200160405190810160405280929190818152602001828054610f44906122df565b8015610f915780601f10610f6657610100808354040283529160200191610f91565b820191906000526020600020905b815481529060010190602001808311610f7457829003601f168201915b5050505050908060040154908060050160009054906101000a900473ffffffffffffffffffffffffffffffffffffffff1690806006018054610fd2906122df565b80601f0160208091040260200160405190810160405280929190818152602001828054610ffe906122df565b801561104b5780601f106110205761010080835404028352916020019161104b565b820191906000526020600020905b81548152906001019060200180831161102e57829003601f168201915b5050505050905087565b606060058054806020026020016040519081016040528092919081815260200182805480156110d957602002820191906000526020600020905b8160009054906101000a900473ffffffffffffffffffffffffffffffffffffffff1673ffffffffffffffffffffffffffffffffffffffff168152602001906001019080831161108f575b5050505050905090565b600060608060006060600080600760008973ffffffffffffffffffffffffffffffffffffffff1673ffffffffffffffffffffffffffffffffffffffff16815260200190815260200160002060000154600760008a73ffffffffffffffffffffffffffffffffffffffff1673ffffffffffffffffffffffffffffffffffffffff168152602001908152602001600020600101600760008b73ffffffffffffffffffffffffffffffffffffffff1673ffffffffffffffffffffffffffffffffffffffff168152602001908152602001600020600201600760008c73ffffffffffffffffffffffffffffffffffffffff1673ffffffffffffffffffffffffffffffffffffffff16815260200190815260200160002060030160009054906101000a900473ffffffffffffffffffffffffffffffffffffffff16600760008d73ffffffffffffffffffffffffffffffffffffffff1673ffffffffffffffffffffffffffffffffffffffff168152602001908152602001600020600701600760008e73ffffffffffffffffffffffffffffffffffffffff1673ffffffffffffffffffffffffffffffffffffffff16815260200190815260200160002060040154600760008f73ffffffffffffffffffffffffffffffffffffffff1673ffffffffffffffffffffffffffffffffffffffff16815260200190815260200160002060050160009054906101000a900460ff168580546112fa906122df565b80601f0160208091040260200160405190810160405280929190818152602001828054611326906122df565b80156113735780601f1061134857610100808354040283529160200191611373565b820191906000526020600020905b81548152906001019060200180831161135657829003601f168201915b50505050509550848054611386906122df565b80601f01602080910402602001604051908101604052809291908181526020018280546113b2906122df565b80156113ff5780601f106113d4576101008083540402835291602001916113ff565b820191906000526020600020905b8154815290600101906020018083116113e257829003601f168201915b50505050509450828054611412906122df565b80601f016020809104026020016040519081016040528092919081815260200182805461143e906122df565b801561148b5780601f106114605761010080835404028352916020019161148b565b820191906000526020600020905b81548152906001019060200180831161146e57829003601f168201915b505050505092509650965096509650965096509650919395979092949650565b60076020528060005260406000206000915090508060000154908060010180546114d4906122df565b80601f0160208091040260200160405190810160405280929190818152602001828054611500906122df565b801561154d5780601f106115225761010080835404028352916020019161154d565b820191906000526020600020905b81548152906001019060200180831161153057829003601f168201915b505050505090806002018054611562906122df565b80601f016020809104026020016040519081016040528092919081815260200182805461158e906122df565b80156115db5780601f106115b0576101008083540402835291602001916115db565b820191906000526020600020905b8154815290600101906020018083116115be57829003601f168201915b5050505050908060030160009054906101000a900473ffffffffffffffffffffffffffffffffffffffff16908060040154908060050160009054906101000a900460ff1690806006015490806007018054611635906122df565b80601f0160208091040260200160405190810160405280929190818152602001828054611661906122df565b80156116ae5780601f10611683576101008083540402835291602001916116ae565b820191906000526020600020905b81548152906001019060200180831161169157829003601f168201915b5050505050905088565b60018060000154905081565b6060600680548060200260200160405190810160405280929190818152602001828054801561174857602002820191906000526020600020905b8160009054906101000a900473ffffffffffffffffffffffffffffffffffffffff1673ffffffffffffffffffffffffffffffffffffffff16815260200190600101908083116116fe575b5050505050905090565b60008060000154905081565b3373ffffffffffffffffffffffffffffffffffffffff16600260009054906101000a900473ffffffffffffffffffffffffffffffffffffffff1673ffffffffffffffffffffffffffffffffffffffff16146117ee576040517f08c379a00000000000000000000000000000000000000000000000000000000081526004016117e59061281d565b60405180910390fd5b6117f860016119d1565b600061180460016119e7565b90506000600460008873ffffffffffffffffffffffffffffffffffffffff1673ffffffffffffffffffffffffffffffffffffffff16815260200190815260200160002090508581600101908161185a91906124bc565b508481600201908161186c91906124bc565b508181600001819055508381600301908161188791906124bc565b5060008160040181905550868160050160006101000a81548173ffffffffffffffffffffffffffffffffffffffff021916908373ffffffffffffffffffffffffffffffffffffffff160217905550828160060190816118e691906124bc565b506003879080600181540180825580915050600190039060005260206000200160009091909190916101000a81548173ffffffffffffffffffffffffffffffffffffffff021916908373ffffffffffffffffffffffffffffffffffffffff16021790555080600001547fd297f12b256bb8485a6013fb5e302017018123e99a0ebb20756c09e1707b4b9087878785600401548660050160009054906101000a900473ffffffffffffffffffffffffffffffffffffffff16876006016040516119b39695949392919061283d565b60405180910390a250505050505050565b6000600380549050905090565b6001816000016000828254019250508190555050565b600081600001549050919050565b6000604051905090565b600080fd5b600080fd5b600073ffffffffffffffffffffffffffffffffffffffff82169050919050565b6000611a3482611a09565b9050919050565b611a4481611a29565b8114611a4f57600080fd5b50565b600081359050611a6181611a3b565b92915050565b600080fd5b600080fd5b6000601f19601f8301169050919050565b7f4e487b7100000000000000000000000000000000000000000000000000000000600052604160045260246000fd5b611aba82611a71565b810181811067ffffffffffffffff82111715611ad957611ad8611a82565b5b80604052505050565b6000611aec6119f5565b9050611af88282611ab1565b919050565b600067ffffffffffffffff821115611b1857611b17611a82565b5b611b2182611a71565b9050602081019050919050565b82818337600083830152505050565b6000611b50611b4b84611afd565b611ae2565b905082815260208101848484011115611b6c57611b6b611a6c565b5b611b77848285611b2e565b509392505050565b600082601f830112611b9457611b93611a67565b5b8135611ba4848260208601611b3d565b91505092915050565b60008060008060808587031215611bc757611bc66119ff565b5b6000611bd587828801611a52565b945050602085013567ffffffffffffffff811115611bf657611bf5611a04565b5b611c0287828801611b7f565b935050604085013567ffffffffffffffff811115611c2357611c22611a04565b5b611c2f87828801611b7f565b925050606085013567ffffffffffffffff811115611c5057611c4f611a04565b5b611c5c87828801611b7f565b91505092959194509250565b6000819050919050565b611c7b81611c68565b82525050565b6000602082019050611c966000830184611c72565b92915050565b600060208284031215611cb257611cb16119ff565b5b6000611cc084828501611a52565b91505092915050565b600081519050919050565b600082825260208201905092915050565b60005b83811015611d03578082015181840152602081019050611ce8565b60008484015250505050565b6000611d1a82611cc9565b611d248185611cd4565b9350611d34818560208601611ce5565b611d3d81611a71565b840191505092915050565b611d5181611a29565b82525050565b600060e0820190508181036000830152611d71818a611d0f565b90508181036020830152611d858189611d0f565b9050611d946040830188611c72565b8181036060830152611da68187611d0f565b9050611db56080830186611c72565b81810360a0830152611dc78185611d0f565b9050611dd660c0830184611d48565b98975050505050505050565b611deb81611c68565b8114611df657600080fd5b50565b600081359050611e0881611de2565b92915050565b600060208284031215611e2457611e236119ff565b5b6000611e3284828501611df9565b91505092915050565b6000602082019050611e506000830184611d48565b92915050565b60008060408385031215611e6d57611e6c6119ff565b5b6000611e7b85828601611a52565b9250506020611e8c85828601611df9565b9150509250929050565b600081519050919050565b600082825260208201905092915050565b6000819050602082019050919050565b611ecb81611a29565b82525050565b6000611edd8383611ec2565b60208301905092915050565b6000602082019050919050565b6000611f0182611e96565b611f0b8185611ea1565b9350611f1683611eb2565b8060005b83811015611f47578151611f2e8882611ed1565b9750611f3983611ee9565b925050600181019050611f1a565b5085935050505092915050565b60006020820190508181036000830152611f6e8184611ef6565b905092915050565b600060e082019050611f8b600083018a611c72565b8181036020830152611f9d8189611d0f565b90508181036040830152611fb18188611d0f565b90508181036060830152611fc58187611d0f565b9050611fd46080830186611c72565b611fe160a0830185611d48565b81810360c0830152611ff38184611d0f565b905098975050505050505050565b60008115159050919050565b61201681612001565b82525050565b600060e082019050612031600083018a611c72565b81810360208301526120438189611d0f565b905081810360408301526120578188611d0f565b90506120666060830187611d48565b81810360808301526120788186611d0f565b905061208760a0830185611c72565b61209460c083018461200d565b98975050505050505050565b6000610100820190506120b6600083018b611c72565b81810360208301526120c8818a611d0f565b905081810360408301526120dc8189611d0f565b90506120eb6060830188611d48565b6120f86080830187611c72565b61210560a083018661200d565b61211260c0830185611c72565b81810360e08301526121248184611d0f565b90509998505050505050505050565b600080600080600060a0868803121561214f5761214e6119ff565b5b600061215d88828901611a52565b955050602086013567ffffffffffffffff81111561217e5761217d611a04565b5b61218a88828901611b7f565b945050604086013567ffffffffffffffff8111156121ab576121aa611a04565b5b6121b788828901611b7f565b935050606086013567ffffffffffffffff8111156121d8576121d7611a04565b5b6121e488828901611b7f565b925050608086013567ffffffffffffffff81111561220557612204611a04565b5b61221188828901611b7f565b9150509295509295909350565b7f596f752068617665206e6f20726967687420746f2070726f766964652061757460008201527f686f72697a6174696f6e20666f7220766f746500000000000000000000000000602082015250565b600061227a603383611cd4565b91506122858261221e565b604082019050919050565b600060208201905081810360008301526122a98161226d565b9050919050565b7f4e487b7100000000000000000000000000000000000000000000000000000000600052602260045260246000fd5b600060028204905060018216806122f757607f821691505b60208210810361230a576123096122b0565b5b50919050565b60008190508160005260206000209050919050565b60006020601f8301049050919050565b600082821b905092915050565b6000600883026123727fffffffffffffffffffffffffffffffffffffffffffffffffffffffffffffffff82612335565b61237c8683612335565b95508019841693508086168417925050509392505050565b6000819050919050565b60006123b96123b46123af84611c68565b612394565b611c68565b9050919050565b6000819050919050565b6123d38361239e565b6123e76123df826123c0565b848454612342565b825550505050565b600090565b6123fc6123ef565b6124078184846123ca565b505050565b5b8181101561242b576124206000826123f4565b60018101905061240d565b5050565b601f8211156124705761244181612310565b61244a84612325565b81016020851015612459578190505b61246d61246585612325565b83018261240c565b50505b505050565b600082821c905092915050565b600061249360001984600802612475565b1980831691505092915050565b60006124ac8383612482565b9150826002028217905092915050565b6124c582611cc9565b67ffffffffffffffff8111156124de576124dd611a82565b5b6124e882546122df565b6124f382828561242f565b600060209050601f8311600181146125265760008415612514578287015190505b61251e85826124a0565b865550612586565b601f19841661253486612310565b60005b8281101561255c57848901518255600182019150602085019450602081019050612537565b868310156125795784890151612575601f891682612482565b8355505b6001600288020188555050505b505050505050565b6000815461259b816122df565b6125a58186611cd4565b945060018216600081146125c057600181146125d657612609565b60ff198316865281151560200286019350612609565b6125df85612310565b60005b83811015612601578154818901526001820191506020810190506125e2565b808801955050505b50505092915050565b600060e082019050818103600083015261262c818a611d0f565b905081810360208301526126408189611d0f565b905061264f6040830188611d48565b61265c6060830187611c72565b612669608083018661200d565b61267660a0830185611c72565b81810360c0830152612688818461258e565b905098975050505050505050565b7f596f75206861766520616c726561647920766f74656421000000000000000000600082015250565b60006126cc601783611cd4565b91506126d782612696565b602082019050919050565b600060208201905081810360008301526126fb816126bf565b9050919050565b7f596f752068617665206e6f20726967687420746f20766f746500000000000000600082015250565b6000612738601983611cd4565b915061274382612702565b602082019050919050565b600060208201905081810360008301526127678161272b565b9050919050565b7f4e487b7100000000000000000000000000000000000000000000000000000000600052601160045260246000fd5b60006127a882611c68565b91506127b383611c68565b92508282019050808211156127cb576127ca61276e565b5b92915050565b7f4f6e6c79204f7267616e697a65722063616e206164642043616e646964617465600082015250565b6000612807602083611cd4565b9150612812826127d1565b602082019050919050565b60006020820190508181036000830152612836816127fa565b9050919050565b600060c08201905081810360008301526128578189611d0f565b9050818103602083015261286b8188611d0f565b9050818103604083015261287f8187611d0f565b905061288e6060830186611c72565b61289b6080830185611d48565b81810360a08301526128ad818461258e565b905097965050505050505056fea264697066735822122066ad5abc934c3a8ce4e9396fc7c9c685bcb36931881c32c24ff0767e4b577c9b64736f6c63430008120033",
  "linkReferences": {},
  "deployedLinkReferences": {}
}